:020000042000DA
:10000000D10B0020E90B0020FB0B0020050C002089
:10001000C10C0020DD0B00204D0C00200000000072
:10002000090D002000000000E70C0020810C0020DA
:04003000250D00207A
:10003400A01000207F000020750000207700002021
:1000440000000000000000000000000000000000AC
:100054000000000000000000000000007900002003
:1000640000000000000000007B0000207D00002054
:10007400FEE7FEE7FEE7FEE7FEE706498D46064992
:1000840081F3098800208646EC4600200021034ABB
:1000940090470000A0100020A8100020310D00207F
:1000A400014B1868704700BF9C0F0020094A536930
:1000B40043F4802310B55361EFF3108272B600232A
:1000C400CC58C4500433B3F5807FF9D182F310883F
:1000D40010BD00BF00200240064B5A69002ABFBF72
:1000E400054A9A6002F188329A60BABF5869C00F13
:1000F400002070470020024023016745044B5A69E1
:1001040042F000425A615869C043C00F704700BFB3
:100114000020024070B50646FFF7C2FF0F4C0546AB
:100124002369DA030BD423694CF2FA3213400DD05D
:100134000B494A681A434A600120236170BDFFF7E6
:10014400AFFF401BB042EBD90320F7E72369DB077D
:1001540044BF012323610020F0E700BF00200240D8
:10016400780F00202DE9F843254D99462B78012B73
:1001740004460F46904641D001234FF47A702B7009
:10018400FFF7C8FF064630BB68601E48026812F4D9
:10019400806217BF03682A7723F4806303601CBF5F
:1001A40002232B77E4B9436943F001034361C7F8A1
:1001B4000080BFF36F8F0124C7F804904FF47A7066
:1001C400FFF7A8FF064624B10E4A536923EA040345
:1001D400536100F059F800232B703046BDE8F883D2
:1001E400631E012B08D841463846FFF75FFFA31E64
:1001F4005C425C41A404E1E70024DFE70226ECE76B
:10020400780F0020002002400D4B1A6A520211D5CB
:10021400C10742BF5A6942F004025A61820703D5FA
:100224005A6942F400425A61054A536943F48033DF
:10023400536170475A6942F4004242F00402F2E703
:10024400002002400F4B1A6A12F4800F5A6913D12E
:1002540022F400625A615A69C00022F47E7200F4EA
:10026400FF60104358615A6942F002025A615A69A8
:1002740042F480325A617047C907E9D442F40062FB
:10028400E8E700BF002002401548037FDAB203F01C
:10029400FD03012B10D1134B196821F4007119606F
:1002A400196841F400611960196821F4006119604A
:1002B400196841F400711960931E012B0CD8094B85
:1002C4001A6842F480521A601A6822F480521A6042
:1002D4001A6842F480621A6000230377704700BFF3
:1002E400780F0020002002402DE9F047334D2B7891
:1002F400012B064688465ED001274FF47A702F7092
:10030400FFF708FF044620BB2D4B68601A6812F4FF
:10031400007F1A6822D0510506D51A6822F480623B
:100324001A6003232B7700E02F773368012B1FD14A
:100334007068FFF769FF4FF47A70FFF7EBFE204A0D
:10034400536923F4004323F0040304465361FFF785
:100354009BFF00232B702046BDE8F087520505D58E
:100364001A6822F480621A600223DBE72877DCE74C
:100374004FF0FF33C8F80030B768DFF84490DFF877
:1003840044A0B368F2681344BB42E0D971683846AC
:10039400FFF758FF4FF47A70FFF7BCFED9F814301A
:1003A40003EA0A03C9F8143018B1C8F80070044607
:1003B400CDE70137E5E70224CDE700BF780F002041
:1003C4000020024005FCFFFF284B1A6818BB02F40A
:1003D400C062B2F5806FD3F8802022F48072C3F833
:1003E400802040D11A6822F4C06242F400721A607C
:1003F4001F4A126832214A431E49B2FBF1F201320C
:100404005969490500D522B95B6958052BD50320E4
:100414007047013AF4E7B0F5007F1FD102F4C062DF
:10042400B2F5806FD3F8802042F48072C3F8802044
:1004340019D11A6822F4C06242F400721A600C4A9C
:10044400126832214A430B49B2FBF1F20132596975
:100454004905D9D5002AD7D0013AF8E722F4C06279
:1004640042F480621A600020704700BF00700040B0
:10047400980F002040420F002DE9F341044618B9BB
:10048400012002B0BDE8F0810368D90714D42368C1
:100494009A0758D42368190700F1A18023685A07E2
:1004A40000F1C88023689A0600F12F81E369002BCC
:1004B40040F05C810020E4E79F4DAB68EA6803F0FC
:1004C4000C030C2B0AD102F00303032B08D12B6875
:1004D4009B03DCD56368002BD9D1D1E7082BF5E762
:1004E4006368B3F5803F10D12B6843F480332B60ED
:1004F400FFF7D6FD06462B689F03C8D4FFF7D0FD4F
:10050400801B6428F7D90320BBE7B3F5A02F04D1DF
:100514002B6843F480232B60E6E72A6822F48032B8
:100524002A602A6822F480222A60002BE0D1FFF797
:10053400B7FD06462B689903A9D5FFF7B1FD801BCB
:100544006428F7D9DFE77C4DAB68EA6803F00C0355
:100554000C2B17D102F00303022B15D12B685A057B
:1005640002D5E368002B8BD06B68226923F0FE432D
:1005740043EA02636B60714B186800F0B4FA002818
:1005840088D07DE7042BE8E7E368BBB12B6843F42C
:1005940080732B60FFF784FD06462B685B0507D547
:1005A4006B68226923F0FE4343EA02636B6071E7E0
:1005B400FFF776FD801B0228EFD9A4E72B6823F40C
:1005C40080732B60FFF76CFD06462B685F057FF593
:1005D40061AFFFF765FD801B0228F6D993E76369D5
:1005E400554D9BB1D5F8943043F00103C5F89430D0
:1005F400FFF756FD0646D5F894309B073FF54EAFFE
:10060400FFF74EFD801B0228F5D97CE7D5F894301E
:1006140023F00103C5F89430FFF742FD0646D5F8F0
:1006240094309F077FF53AAFFFF73AFD801B02280D
:10063400F5D968E7404DAB6DD80027D4AB6D43F0D6
:100644008053AB65AB6D03F080530193019B01278D
:100654003B4E3368D9051BD5A368012B29D1D5F8A6
:10066400903043F00103C5F89030FFF719FD41F2D3
:1006740088380646D5F890309B0740D5002F3FF4C4
:1006840011AFAB6D23F08053AB650BE70027DFE7B9
:10069400336843F480733360FFF702FD80463368A8
:1006A400DA05D9D4FFF7FCFCA0EB08000228F6D940
:1006B40029E7052B06D1D5F8903043F00403C5F89B
:1006C4009030CCE7D5F8902022F00102C5F89020B4
:1006D400D5F8902022F00402C5F89020002BC4D154
:1006E400FFF7DEFC41F288380646D5F890309907CA
:1006F400C4D5FFF7D5FC801B4045F6D903E7FFF7C7
:10070400CFFC801B4045B5D9FDE6A3690A4DCBB1AA
:10071400D5F8983043F00103C5F89830FFF7C0FCD2
:100724000646D5F898309B073FF5C0AEFFF7B8FCF6
:10073400801B0228F5D9E6E600100240740F002061
:1007440000700040D5F8983023F00103C5F89830C4
:10075400FFF7A6FC0646D5F898309F077FF5A6AEAE
:10076400FFF79EFC801B0228F5D9CCE6454DAA680C
:1007740002F00C020C2A51D0022B2B6823F0807358
:100784002B603AD1FFF78CFC06462B6899012ED4D6
:10079400EA683D4B1340226A1343A26A43EA0223E8
:1007A400E26A43EAC263626A013A43EA0213226BD1
:1007B4005208013A43EA4253626B5208013A43EA4F
:1007C4004263EB602B6843F080732B60EB6843F06B
:1007D4008073EB60FFF764FC04462B689A013FF5D5
:1007E40069AEFFF75DFC001B0228F6D98BE6FFF724
:1007F40057FC801B0228C8D985E6FFF751FC044644
:100804002B689B0104D4EA68204B1340EB6051E64B
:10081400FFF746FC001B0228F2D974E6012B3FF4D3
:100824002FAEEB68226A03F0030191427FF428AEF5
:10083400616A03F0F0020139B2EB011F7FF420AECC
:10084400A16A03F4FE42B2EB012F7FF419AEE16A10
:1008540003F07842B2EBC16F7FF412AE226B520800
:1008640003F4C001013AB1EB425F7FF409AE626B5D
:100874005208013A03F0C063B3EB426F14BF012086
:100884000020FEE5001002400C809F01FCFFEEFEFC
:10089400174B9A6802F00C02042A23D09A6802F0DB
:1008A4000C02082A20D09A6802F00C020C2A1DD1EE
:1008B400D968DA68D868DB6801F00301C3F34163DF
:1008C4000329C2F30312C0F3062003F101030CBF92
:1008D400084909495B000132B1FBF2F25043B0FB15
:1008E400F3F070470448704702487047002070478F
:1008F4000010024000127A000024F4002DE9F843AD
:100904000E46054610B90120BDE8F8836D4A136808
:1009140003F00F038B4245D3296811F001084CD131
:100924002A68910740F1A780674B12F0040F1EBF9D
:10093400996841F4E0619960120741BF9A6822F412
:100944007C5242F4E0629A609A68A96822F0F0024C
:100954000A439A605B4C236803F00F03B34200F22E
:1009640093802A68584C12F0040F40F0A3801307B8
:1009740006D5A3682A6923F4605343EAC203A3603B
:10098400FFF786FFA368514AC3F30313D35C03F054
:100994001F03D8404E4B18604E4B1868BDE8F8430F
:1009A40000F0A1B8136823F00F030B43136013681E
:1009B40003F00F038B42A6D1AEE76F68424C032FBE
:1009C400236849D19B019ED5E368E26803F00303E1
:1009D400032BE3680CBF40484048C2F30312C3F33F
:1009E40006230132B0FBF2F25343E268C2F34162E0
:1009F40001325200B3FBF2F3394A93421AD84FF052
:100A04000008A36823F003033B43A360FFF748FBFC
:100A140041F288390746A3686A6803F00C03B3EB14
:100A2400820F3FF47DAFFFF73BFBC01B4845F2D973
:100A3400032069E7A36813F0F00F04D08807DED51C
:100A4400AB68002BDBD1A36823F0F00343F08003F1
:100A5400A3604FF08008D4E7022F09D113F4003FBC
:100A64003FF451AFFFF714FF1D4B9842C7D9EAE793
:100A740013F4806FF4E7B8F1800F01BF124A936852
:100A840023F0F003936065E7236823F00F033343F7
:100A94002360FFF705FB41F288380746236803F01B
:100AA4000F03B3423FF45DAFFFF7FAFAC01B4045B2
:100AB400F4D9BDE7A368E96823F4E0630B43A360BA
:100AC40055E700BF0020024000100240E00E002065
:100AD400980F0020740F002000127A000024F40004
:100AE40000B4C40470470020704710B594B0382295
:100AF400002106A800F0EDF91422002101A800F05D
:100B0400E8F90020FFF760FC4FF48072099240225C
:100B140002230A920424552206A8CDE91023CDE924
:100B2400123306930D930E930F94FFF7A5FC80B92F
:100B34000F230193039003230490059021460DEBAA
:100B440004000293FFF7DAFE003818BF012014B046
:100B540010BD0120FBE700F17840C00A7047000097
:100B6400154B164A1B68B2F8E02013F4807F4FF649
:100B7400FF7310D19A4217BF114B124BD3F8E025E3
:100B8400114B1CBF03EA422303F1006383428CBF71
:100B94000120022070479A4217BF094B094BD3F832
:100BA400E025094B1CBF03EA422303F1006383429F
:100BB4008CBF022001207047000001400075FF1F18
:100BC4000070FF1F0000040800FEFF01014B1B68BA
:100BD400704700BF700F0020014B01201B68704755
:100BE400700F002008B5FFF77DFFFFF77EFFFFF7CA
:100BF40073FA002008BD08B5FFF780FA002008BD8D
:100C040070B50F4B86B01B680E4B4FF400420026A4
:100C140001961A610546FFF79EFF04462846FFF732
:100C24009FFF0123CDE9026001A902A80494059362
:100C3400FFF75AFB801B18BF012006B070BD00BF30
:100C4400700F00200020024010B50A4B86B01B68CC
:100C5400094B4FF400420024019401A91A6102A82F
:100C640001220323CDE90223FFF73EFB00B1204616
:100C740006B010BD700F002000200240F0B587B010
:100C84000027154604460197FFF765FF06462046F0
:100C9400FFF766FF084B4FF400421A61012401A9D3
:100CA40002A8CDE9046502970394FFF71DFB00B188
:100CB400204607B0F0BD00BF0020024070B50446D6
:100CC4004518161AAC4201D3002070BD3219002316
:100CD40021460120FFF746FA0028F6D104F5807476
:100CE400F0E770B5CD0A0446161A32194FF40061C4
:100CF4002046FFF7E3FF002803DB013D04F5006411
:100D0400F3D170BD07B5009313460A460146034864
:100D140000F00EF803B05DF804FB00BF00000020F3
:100D24000146014800F05AB8000000200020704736
:100D3400F0B587B01F000092244B0C9A0C00244E8F
:100D440001909A4204D0234B234E9A4200D00026AD
:100D54003D00102F00D91025019B009A5B6A7F1B70
:100D6400002B04D002AA29000098984702AA009BED
:100D74005B19009355191300002E16D00F201A7812
:100D840001335440220002409200915922094A4002
:100D94001100014089008C59120954409D42EED142
:100DA400002FD5D1200007B0F0BD1A785440082296
:100DB400012121406408002901D00C994C40013ADA
:100DC400002AF5D101339D42EFD1E9E72083B8ED44
:100DD400300F0020783BF682F00E0020F0B501279A
:100DE40005000C0085B07F42E06A002821D0236A08
:100DF40002380293636A029A03932E4B1360002312
:100E0400E362A668E368F618092851D800F054F89C
:100E140005165022292B444A504E6B693800002B8A
:100E240004D0216962693000D2B29847029B039CC6
:100E340018602B68002BD7D09847D5E761692369E0
:100E4400A269280000923200FFF772FF029B9860AB
:100E54000020EBE76B6A3800002BE7D02169226899
:100E640009E0AB6AF7E72369002B0FD0EB6A002B8C
:100E740004D06169226930009847D7E723693800B4
:100E8400012BD3D13000EB689847CFE7AB6938002A
:100E9400002BCBD09847C9E7A16930006269FFF7FE
:100EA400A1FEC3E76069FFF7A6FEBFE7EB69D2E7DF
:100EB4003800BBE7FFFFFF7F8C46714649084900B5
:100EC400095C49008E446146704700220B00110002
:0C0ED4001A0012B1013A8154FCD17047A1
:100EE00000000000000000000102030406070809DA
:100EF000000000006FC75E10DE8EBD20B149E330F8
:100F0000BC1D7B41D3DA25516293C6610D549871A3
:100F1000783BF68217FCA892A6B54BA2C97215B20F
:100F2000C4268DC3ABE1D3D31AA830E3756F6EF33B
:100F3000000000006410B71DC8206E3BAC30D926FD
:100F40009041DC76F4516B6B5861B24D3C710550A9
:100F50002083B8ED44930FF0E8A3D6D68CB361CBD1
:100F6000B0C2649BD4D2D38678E20AA01CF2BDBD85
:1010A800010153544D3332473420696E7465726EB2
:1010B800616C20666C61736800000000000000002D
:1010C8000000000000000000000000000000000018
:1010D8000000000000000000000000000000000008
:1010E80000000000000000000000000000000000F8
:1010F80000000000000000000000000000000000E8
:1011080000000000000000000000000000000000D7
:1011180000000000000000000000000000000000C7
:10112800000001000000000800000800000800009E
:1011380000000000FF0000006400000070170000BD
:101148000008000000000000FFFFFFFFFFFFFFFF97
:101158000000000000000000000000000000000087
:040000052000007F58
:00000001FF
